:1000000038C048C046C045C044C043C042C041C0DB
:1000100040C03FC03EC03DC03CC03BC03AC039C0FC
:1000200038C037C036C03E5149453E00427F40008F
:10003000625151494622414949361814127F1047EE
:10004000454545393C4A494930030179050336495C
:10005000494936064949291E00606000007C12119A
:10006000127C0F3040300F000000000021C004134C
:10007000200811241FBECFE5D4E0DEBFCDBF20E0B5
:10008000A0E6B0E001C01D92A836B207E1F720D18A
:1000900096C1B6CF1F920F920FB60F9211248F9375
:1000A0009F9380B3847190916000903131F48430DB
:1000B00069F490916100915007C0911107C084319B
:1000C00029F4909161009F5F90936100809360009C
:1000D0009F918F910F900FBE0F901F901895806C7D
:1000E00087B985EC86B9349BFECF85E986B984B1A2
:1000F00095B10296089597FF05C091958195910954
:10010000AA9A01C0AA98A29A0197F1F7A298089515
:1001100080B7846080BFAA9AA29A8FEF87BB83EED4
:1001200081BB2ED08FE785BD81E085BF80E48BBF8A
:10013000789482E088BB8AE090E09093630080939B
:10014000620008958FB9779BFECF0895615038F013
:10015000FC01019625912FB9779BFECFF7CF08952B
:10016000CF93DF931F92CDB7DEB7C29880686983C3
:10017000E9DF6981862F80640F90DF91CF91E2CF14
:10018000CF93DF931DB881E58DB9C29866E08CE608
:1001900090E0DCDF60E080E0E3DFC29AC8EFD1E00E
:1001A00080E0D0DF2197E1F7C2988CE0DF91CF911A
:1001B000C9CFC29A25E0829FC001112465E08A5D03
:1001C0009F4FC4DF80E0BECFEF92FF920F931F934B
:1001D000CF93DF931F92CDB7DEB77C01062F1AE0D5
:1001E000612F70E0011105C0E616F70610F411301A
:1001F00059F4C701D0D0082F862F9983DADFE02E7B
:100200009981F92E01E002C08DE0D3DF1A3011F49C
:1002100011E0E6CF0F90DF91CF911F910F91FF90EA
:10022000EF900895CF93DF9364E670E0B4D09B0124
:10023000EC0160E0C901C8DF8AE0BBDF61E0CE010C
:10024000DF91CF91C1CFCF93DF9380E048DFEC0106
:100250002091620030916300281B390B49E0429FD6
:10026000C001439F900D11242091640030916500DE
:10027000220F331F220F331F820F931F209166001E
:1002800030916700BE01621B730B469F9001479F30
:10029000300D1124820F931F092E000CAA0BBB0BEB
:1002A000811520E892072FEFA207B20729F00097E7
:1002B000A105B10531F004C081E090E8AFEFBFEFD8
:1002C0001ADFD0936700C0936600DF91CF91089545
:1002D0001FDFC0E0D0E408EE13E08AE0E82EF12C46
:1002E00095E0C92ED12C08B606FEFDCFD8BFABDFF6
:1002F00080916100882329F1F89420916100809118
:10030000620090916300820F911D27FD9A95909352
:100310006300809362001092610078948091620083
:10032000909163008A3091052CF4F0926300E09282
:10033000620007C0893E934024F01093630000934D
:10034000620063E080E00CDF8091620090916300C6
:1003500069DF8CE02EDFC1111CC060E080E000DFAF
:1003600080E0BDDE5FDF8CE024DF61E080E0F8DE6E
:1003700081E0B5DE8730910550F480E090E0B60171
:100380000AD0CB014FDF8BE014DFC6E0ACCF06977D
:10039000F6CFC150A8CFAA1BBB1B51E107C0AA1FB3
:1003A000BB1FA617B70710F0A61BB70B881F991F16
:1003B0005A95A9F780959095BC01CD010895F894C0
:0203C000FFCF6D
:00000001FF
